{
  "_format": "hh-sol-artifact-1",
  "contractName": "AdvancedAuthorization",
  "sourceName": "contracts/AdvancedAuthorization.sol",
  "abi": [
    {
      "inputs": [
        {
          "internalType": "address",
          "name": "initialAdmin",
          "type": "address"
        }
      ],
      "stateMutability": "nonpayable",
      "type": "constructor"
    },
    {
      "anonymous": false,
      "inputs": [
        {
          "indexed": true,
          "internalType": "address",
          "name": "user",
          "type": "address"
        },
        {
          "indexed": true,
          "internalType": "address",
          "name": "admin",
          "type": "address"
        },
        {
          "indexed": false,
          "internalType": "uint256",
          "name": "expirationTime",
          "type": "uint256"
        },
        {
          "indexed": false,
          "internalType": "uint256",
          "name": "amountLimit",
          "type": "uint256"
        }
      ],
      "name": "AdminAuthorized",
      "type": "event"
    },
    {
      "anonymous": false,
      "inputs": [
        {
          "indexed": true,
          "internalType": "address",
          "name": "admin",
          "type": "address"
        }
      ],
      "name": "AdminRegistered",
      "type": "event"
    },
    {
      "anonymous": false,
      "inputs": [
        {
          "indexed": true,
          "internalType": "address",
          "name": "user",
          "type": "address"
        },
        {
          "indexed": true,
          "internalType": "address",
          "name": "admin",
          "type": "address"
        }
      ],
      "name": "AdminRevoked",
      "type": "event"
    },
    {
      "anonymous": false,
      "inputs": [
        {
          "indexed": true,
          "internalType": "address",
          "name": "from",
          "type": "address"
        },
        {
          "indexed": true,
          "internalType": "address",
          "name": "to",
          "type": "address"
        },
        {
          "indexed": false,
          "internalType": "uint256",
          "name": "amount",
          "type": "uint256"
        }
      ],
      "name": "FundsTransferred",
      "type": "event"
    },
    {
      "inputs": [
        {
          "internalType": "address",
          "name": "",
          "type": "address"
        },
        {
          "internalType": "address",
          "name": "",
          "type": "address"
        }
      ],
      "name": "adminIndex",
      "outputs": [
        {
          "internalType": "uint256",
          "name": "",
          "type": "uint256"
        }
      ],
      "stateMutability": "view",
      "type": "function"
    },
    {
      "inputs": [
        {
          "internalType": "address",
          "name": "",
          "type": "address"
        },
        {
          "internalType": "address",
          "name": "",
          "type": "address"
        }
      ],
      "name": "authorizations",
      "outputs": [
        {
          "internalType": "bool",
          "name": "isAuthorized",
          "type": "bool"
        },
        {
          "internalType": "uint256",
          "name": "expirationTime",
          "type": "uint256"
        },
        {
          "internalType": "uint256",
          "name": "amountLimit",
          "type": "uint256"
        }
      ],
      "stateMutability": "view",
      "type": "function"
    },
    {
      "inputs": [
        {
          "internalType": "address",
          "name": "admin",
          "type": "address"
        },
        {
          "internalType": "uint256",
          "name": "expirationTime",
          "type": "uint256"
        },
        {
          "internalType": "uint256",
          "name": "amountLimit",
          "type": "uint256"
        }
      ],
      "name": "authorizeAdmin",
      "outputs": [],
      "stateMutability": "nonpayable",
      "type": "function"
    },
    {
      "inputs": [
        {
          "internalType": "address",
          "name": "user",
          "type": "address"
        },
        {
          "internalType": "address",
          "name": "admin",
          "type": "address"
        }
      ],
      "name": "getAuthorization",
      "outputs": [
        {
          "components": [
            {
              "internalType": "bool",
              "name": "isAuthorized",
              "type": "bool"
            },
            {
              "internalType": "uint256",
              "name": "expirationTime",
              "type": "uint256"
            },
            {
              "internalType": "uint256",
              "name": "amountLimit",
              "type": "uint256"
            }
          ],
          "internalType": "struct AdvancedAuthorization.Authorization",
          "name": "",
          "type": "tuple"
        }
      ],
      "stateMutability": "view",
      "type": "function"
    },
    {
      "inputs": [
        {
          "internalType": "address",
          "name": "user",
          "type": "address"
        }
      ],
      "name": "getAuthorizedAdmins",
      "outputs": [
        {
          "internalType": "address[]",
          "name": "",
          "type": "address[]"
        }
      ],
      "stateMutability": "view",
      "type": "function"
    },
    {
      "inputs": [],
      "name": "getBalance",
      "outputs": [
        {
          "internalType": "uint256",
          "name": "",
          "type": "uint256"
        }
      ],
      "stateMutability": "view",
      "type": "function"
    },
    {
      "inputs": [
        {
          "internalType": "address",
          "name": "",
          "type": "address"
        }
      ],
      "name": "isAdmin",
      "outputs": [
        {
          "internalType": "bool",
          "name": "",
          "type": "bool"
        }
      ],
      "stateMutability": "view",
      "type": "function"
    },
    {
      "inputs": [
        {
          "internalType": "address",
          "name": "user",
          "type": "address"
        },
        {
          "internalType": "address",
          "name": "admin",
          "type": "address"
        }
      ],
      "name": "isAuthorized",
      "outputs": [
        {
          "internalType": "bool",
          "name": "",
          "type": "bool"
        }
      ],
      "stateMutability": "view",
      "type": "function"
    },
    {
      "inputs": [
        {
          "internalType": "address",
          "name": "newAdmin",
          "type": "address"
        }
      ],
      "name": "registerAdmin",
      "outputs": [],
      "stateMutability": "nonpayable",
      "type": "function"
    },
    {
      "inputs": [
        {
          "internalType": "address",
          "name": "admin",
          "type": "address"
        }
      ],
      "name": "revokeAdmin",
      "outputs": [],
      "stateMutability": "nonpayable",
      "type": "function"
    },
    {
      "inputs": [
        {
          "internalType": "address",
          "name": "user",
          "type": "address"
        },
        {
          "internalType": "uint256",
          "name": "amount",
          "type": "uint256"
        }
      ],
      "name": "transferFromUser",
      "outputs": [],
      "stateMutability": "nonpayable",
      "type": "function"
    },
    {
      "inputs": [
        {
          "internalType": "address",
          "name": "",
          "type": "address"
        },
        {
          "internalType": "uint256",
          "name": "",
          "type": "uint256"
        }
      ],
      "name": "userAdmins",
      "outputs": [
        {
          "internalType": "address",
          "name": "",
          "type": "address"
        }
      ],
      "stateMutability": "view",
      "type": "function"
    },
    {
      "stateMutability": "payable",
      "type": "receive"
    }
  ],
  "bytecode": "0x608060405234801561001057600080fd5b50604051610e46380380610e4683398101604081905261002f91610081565b6001600160a01b0381166000818152600160208190526040808320805460ff1916909217909155517fac0f15283d37631c15b481bc07dc402bcfc030956bcd94b5585f71d92e84c3da9190a2506100b1565b60006020828403121561009357600080fd5b81516001600160a01b03811681146100aa57600080fd5b9392505050565b610d86806100c06000396000f3fe6080604052600436106100cb5760003560e01c806365e4ad9e11610074578063983b05641161004e578063983b056414610285578063bf6dcbd2146102c9578063c38c58131461030157600080fd5b806365e4ad9e146102005780637489d833146102205780637a54c8cb1461025857600080fd5b806324d7806c116100a557806324d7806c146101805780632d345670146101c0578063499a3061146101e057600080fd5b806306899031146100d757806312065fe014610141578063126da35b1461015e57600080fd5b366100d257005b600080fd5b3480156100e357600080fd5b5061011f6100f2366004610c0b565b600060208181529281526040808220909352908152208054600182015460029092015460ff909116919083565b6040805193151584526020840192909252908201526060015b60405180910390f35b34801561014d57600080fd5b50475b604051908152602001610138565b34801561016a57600080fd5b5061017e610179366004610c3e565b610321565b005b34801561018c57600080fd5b506101b061019b366004610c68565b60016020526000908152604090205460ff1681565b6040519015158152602001610138565b3480156101cc57600080fd5b5061017e6101db366004610c68565b610534565b3480156101ec57600080fd5b5061017e6101fb366004610c83565b61075f565b34801561020c57600080fd5b506101b061021b366004610c0b565b610964565b34801561022c57600080fd5b5061024061023b366004610c3e565b6109f5565b6040516001600160a01b039091168152602001610138565b34801561026457600080fd5b50610278610273366004610c68565b610a2d565b6040516101389190610cb6565b34801561029157600080fd5b506102a56102a0366004610c0b565b610aa3565b60408051825115158152602080840151908201529181015190820152606001610138565b3480156102d557600080fd5b506101506102e4366004610c0b565b600360209081526000928352604080842090915290825290205481565b34801561030d57600080fd5b5061017e61031c366004610c68565b610b1b565b6001600160a01b038216600090815260208181526040808320338452909152902054829060ff1680156103a357506001600160a01b03811660009081526020818152604080832033845290915290206001015415806103a357506001600160a01b03811660009081526020818152604080832033845290915290206001015442105b61041a5760405162461bcd60e51b815260206004820152602760248201527f4e6f7420617574686f72697a6564206f7220617574686f72697a6174696f6e2060448201527f657870697265640000000000000000000000000000000000000000000000000060648201526084015b60405180910390fd5b6001600160a01b038316600090815260208181526040808320338452909152902060028101541580610450575080600201548311155b61049c5760405162461bcd60e51b815260206004820152601d60248201527f5472616e7366657220616d6f756e742065786365656473206c696d69740000006044820152606401610411565b6002810154156104c057828160020160008282546104ba9190610d03565b90915550505b604051339084156108fc029085906000818181858888f193505050501580156104ed573d6000803e3d6000fd5b5060405183815233906001600160a01b038616907f78e6250172d8e0a57d8d41f480f13581571a2d27bb2a93f5f7bd2511f5c22a6c9060200160405180910390a350505050565b336000908152602081815260408083206001600160a01b038516845290915290205460ff166105a55760405162461bcd60e51b815260206004820152601460248201527f41646d696e206e6f7420617574686f72697a65640000000000000000000000006044820152606401610411565b336000818152602081815260408083206001600160a01b038616808552908352818420805460ff191681556001808201869055600291820186905586865260038552838620928652918452828520549585529092528220546106079190610d03565b90508082146106be5733600090815260026020526040812080548390811061063157610631610d24565b60009182526020808320909101543383526002909152604090912080546001600160a01b03909216925082918590811061066d5761066d610d24565b6000918252602080832091909101805473ffffffffffffffffffffffffffffffffffffffff19166001600160a01b039485161790553382526003815260408083209490931682529290925290208290555b3360009081526002602052604090208054806106dc576106dc610d3a565b600082815260208082208301600019908101805473ffffffffffffffffffffffffffffffffffffffff19169055909201909255338083526003825260408084206001600160a01b038816808652935280842084905551919290917f7c0c3c84c67c85fcac635147348bfe374c24a1a93d0366d1cfe9d8853cbf89d59190a3505050565b6001600160a01b03831660009081526001602052604090205460ff166107ed5760405162461bcd60e51b815260206004820152602260248201527f41646472657373206973206e6f7420726567697374657265642061732061646d60448201527f696e0000000000000000000000000000000000000000000000000000000000006064820152608401610411565b336000908152602081815260408083206001600160a01b038716845290915290205460ff161561085f5760405162461bcd60e51b815260206004820152601860248201527f41646d696e20616c726561647920617574686f72697a656400000000000000006044820152606401610411565b60408051606081018252600180825260208083018681528385018681523360008181528085528781206001600160a01b038c168083529086528882209751885460ff1916901515178855935187870155915160029687015580825294835294852080548085018255818752928620909201805473ffffffffffffffffffffffffffffffffffffffff1916909117905591909252546108fd9190610d03565b3360008181526003602090815260408083206001600160a01b0389168085529083529281902094909455835186815290810185905290927fb330aacc8e0fa3718f3ef0cfbd87405bc9e404e10a504eb501c0848c8c51464a910160405180910390a3505050565b6001600160a01b0380831660009081526020818152604080832093851683529290529081205460ff1680156109ec57506001600160a01b038084166000908152602081815260408083209386168352929052206001015415806109ec57506001600160a01b038084166000908152602081815260408083209386168352929052206001015442105b90505b92915050565b60026020528160005260406000208181548110610a1157600080fd5b6000918252602090912001546001600160a01b03169150829050565b6001600160a01b038116600090815260026020908152604091829020805483518184028101840190945280845260609392830182828015610a9757602002820191906000526020600020905b81546001600160a01b03168152600190910190602001808311610a79575b50505050509050919050565b610ac9604051806060016040528060001515815260200160008152602001600081525090565b506001600160a01b039182166000908152602081815260408083209390941682529182528290208251606081018452815460ff1615158152600182015492810192909252600201549181019190915290565b3360009081526001602052604090205460ff16610ba05760405162461bcd60e51b815260206004820152602360248201527f4f6e6c792061646d696e732063616e20706572666f726d20746869732061637460448201527f696f6e00000000000000000000000000000000000000000000000000000000006064820152608401610411565b6001600160a01b0381166000818152600160208190526040808320805460ff1916909217909155517fac0f15283d37631c15b481bc07dc402bcfc030956bcd94b5585f71d92e84c3da9190a250565b80356001600160a01b0381168114610c0657600080fd5b919050565b60008060408385031215610c1e57600080fd5b610c2783610bef565b9150610c3560208401610bef565b90509250929050565b60008060408385031215610c5157600080fd5b610c5a83610bef565b946020939093013593505050565b600060208284031215610c7a57600080fd5b6109ec82610bef565b600080600060608486031215610c9857600080fd5b610ca184610bef565b95602085013595506040909401359392505050565b6020808252825182820181905260009190848201906040850190845b81811015610cf75783516001600160a01b031683529284019291840191600101610cd2565b50909695505050505050565b818103818111156109ef57634e487b7160e01b600052601160045260246000fd5b634e487b7160e01b600052603260045260246000fd5b634e487b7160e01b600052603160045260246000fdfea264697066735822122054fb75a4940501d18c81d4e7c50c2dee942edb504b8fa11c81b30b4d27d1c5d564736f6c63430008140033",
  "linkReferences": {},
  "deployedLinkReferences": {}
}