{
  "_format": "hh-sol-artifact-1",
  "contractName": "Authorization",
  "sourceName": "contracts/Authorization.sol",
  "abi": [
    {
      "inputs": [
        {
          "internalType": "address",
          "name": "initialAdmin",
          "type": "address"
        }
      ],
      "stateMutability": "nonpayable",
      "type": "constructor"
    },
    {
      "anonymous": false,
      "inputs": [
        {
          "indexed": true,
          "internalType": "address",
          "name": "user",
          "type": "address"
        },
        {
          "indexed": true,
          "internalType": "address",
          "name": "admin",
          "type": "address"
        }
      ],
      "name": "AdminAuthorized",
      "type": "event"
    },
    {
      "anonymous": false,
      "inputs": [
        {
          "indexed": true,
          "internalType": "address",
          "name": "admin",
          "type": "address"
        }
      ],
      "name": "AdminRegistered",
      "type": "event"
    },
    {
      "anonymous": false,
      "inputs": [
        {
          "indexed": true,
          "internalType": "address",
          "name": "user",
          "type": "address"
        },
        {
          "indexed": true,
          "internalType": "address",
          "name": "admin",
          "type": "address"
        }
      ],
      "name": "AdminRevoked",
      "type": "event"
    },
    {
      "inputs": [
        {
          "internalType": "address",
          "name": "",
          "type": "address"
        },
        {
          "internalType": "address",
          "name": "",
          "type": "address"
        }
      ],
      "name": "adminIndex",
      "outputs": [
        {
          "internalType": "uint256",
          "name": "",
          "type": "uint256"
        }
      ],
      "stateMutability": "view",
      "type": "function"
    },
    {
      "inputs": [
        {
          "internalType": "address",
          "name": "",
          "type": "address"
        },
        {
          "internalType": "uint256",
          "name": "",
          "type": "uint256"
        }
      ],
      "name": "adminUsers",
      "outputs": [
        {
          "internalType": "address",
          "name": "",
          "type": "address"
        }
      ],
      "stateMutability": "view",
      "type": "function"
    },
    {
      "inputs": [
        {
          "internalType": "address",
          "name": "",
          "type": "address"
        },
        {
          "internalType": "address",
          "name": "",
          "type": "address"
        }
      ],
      "name": "authorizations",
      "outputs": [
        {
          "internalType": "bool",
          "name": "",
          "type": "bool"
        }
      ],
      "stateMutability": "view",
      "type": "function"
    },
    {
      "inputs": [
        {
          "internalType": "address",
          "name": "admin",
          "type": "address"
        }
      ],
      "name": "authorizeAdmin",
      "outputs": [],
      "stateMutability": "nonpayable",
      "type": "function"
    },
    {
      "inputs": [
        {
          "internalType": "address",
          "name": "user",
          "type": "address"
        }
      ],
      "name": "getAuthorizedAdmins",
      "outputs": [
        {
          "internalType": "address[]",
          "name": "",
          "type": "address[]"
        }
      ],
      "stateMutability": "view",
      "type": "function"
    },
    {
      "inputs": [
        {
          "internalType": "address",
          "name": "admin",
          "type": "address"
        }
      ],
      "name": "getAuthorizedUsers",
      "outputs": [
        {
          "internalType": "address[]",
          "name": "",
          "type": "address[]"
        }
      ],
      "stateMutability": "view",
      "type": "function"
    },
    {
      "inputs": [],
      "name": "getBalance",
      "outputs": [
        {
          "internalType": "uint256",
          "name": "",
          "type": "uint256"
        }
      ],
      "stateMutability": "view",
      "type": "function"
    },
    {
      "inputs": [
        {
          "internalType": "address",
          "name": "",
          "type": "address"
        }
      ],
      "name": "isAdmin",
      "outputs": [
        {
          "internalType": "bool",
          "name": "",
          "type": "bool"
        }
      ],
      "stateMutability": "view",
      "type": "function"
    },
    {
      "inputs": [
        {
          "internalType": "address",
          "name": "user",
          "type": "address"
        },
        {
          "internalType": "address",
          "name": "admin",
          "type": "address"
        }
      ],
      "name": "isAuthorized",
      "outputs": [
        {
          "internalType": "bool",
          "name": "",
          "type": "bool"
        }
      ],
      "stateMutability": "view",
      "type": "function"
    },
    {
      "inputs": [
        {
          "internalType": "address",
          "name": "newAdmin",
          "type": "address"
        }
      ],
      "name": "registerAdmin",
      "outputs": [],
      "stateMutability": "nonpayable",
      "type": "function"
    },
    {
      "inputs": [
        {
          "internalType": "address",
          "name": "admin",
          "type": "address"
        }
      ],
      "name": "revokeAdmin",
      "outputs": [],
      "stateMutability": "nonpayable",
      "type": "function"
    },
    {
      "inputs": [
        {
          "internalType": "address",
          "name": "user",
          "type": "address"
        },
        {
          "internalType": "uint256",
          "name": "amount",
          "type": "uint256"
        }
      ],
      "name": "transferFromUser",
      "outputs": [],
      "stateMutability": "nonpayable",
      "type": "function"
    },
    {
      "inputs": [
        {
          "internalType": "address",
          "name": "",
          "type": "address"
        },
        {
          "internalType": "uint256",
          "name": "",
          "type": "uint256"
        }
      ],
      "name": "userAdmins",
      "outputs": [
        {
          "internalType": "address",
          "name": "",
          "type": "address"
        }
      ],
      "stateMutability": "view",
      "type": "function"
    },
    {
      "inputs": [
        {
          "internalType": "address",
          "name": "",
          "type": "address"
        },
        {
          "internalType": "address",
          "name": "",
          "type": "address"
        }
      ],
      "name": "userIndex",
      "outputs": [
        {
          "internalType": "uint256",
          "name": "",
          "type": "uint256"
        }
      ],
      "stateMutability": "view",
      "type": "function"
    },
    {
      "stateMutability": "payable",
      "type": "receive"
    }
  ],
  "bytecode": "0x608060405234801561001057600080fd5b50604051610df1380380610df183398101604081905261002f91610081565b6001600160a01b0381166000818152600160208190526040808320805460ff1916909217909155517fac0f15283d37631c15b481bc07dc402bcfc030956bcd94b5585f71d92e84c3da9190a2506100b1565b60006020828403121561009357600080fd5b81516001600160a01b03811681146100aa57600080fd5b9392505050565b610d31806100c06000396000f3fe6080604052600436106100e15760003560e01c8063579f60da1161007f5780637a54c8cb116100595780637a54c8cb146102aa578063b3d140e5146102ca578063bf6dcbd2146102ea578063c38c58131461032257600080fd5b8063579f60da1461023257806365e4ad9e146102525780637489d8331461027257600080fd5b8063126da35b116100bb578063126da35b1461019357806320dbc77f146101b557806324d7806c146101e25780632d3456701461021257600080fd5b806306899031146100ed578063116139d31461013a57806312065fe01461018057600080fd5b366100e857005b600080fd5b3480156100f957600080fd5b50610125610108366004610be2565b600060208181529281526040808220909352908152205460ff1681565b60405190151581526020015b60405180910390f35b34801561014657600080fd5b50610172610155366004610be2565b600560209081526000928352604080842090915290825290205481565b604051908152602001610131565b34801561018c57600080fd5b5047610172565b34801561019f57600080fd5b506101b36101ae366004610c15565b610342565b005b3480156101c157600080fd5b506101d56101d0366004610c3f565b610410565b6040516101319190610c61565b3480156101ee57600080fd5b506101256101fd366004610c3f565b60016020526000908152604090205460ff1681565b34801561021e57600080fd5b506101b361022d366004610c3f565b610486565b34801561023e57600080fd5b506101b361024d366004610c3f565b6107de565b34801561025e57600080fd5b5061012561026d366004610be2565b6109fc565b34801561027e57600080fd5b5061029261028d366004610c15565b610a2a565b6040516001600160a01b039091168152602001610131565b3480156102b657600080fd5b506101d56102c5366004610c3f565b610a62565b3480156102d657600080fd5b506102926102e5366004610c15565b610ad6565b3480156102f657600080fd5b50610172610305366004610be2565b600460209081526000928352604080842090915290825290205481565b34801561032e57600080fd5b506101b361033d366004610c3f565b610af2565b6001600160a01b03821660009081526020818152604080832033845290915290205460ff166103de5760405162461bcd60e51b815260206004820152602960248201527f4e6f7420617574686f72697a656420746f207472616e736665722066726f6d2060448201527f746869732075736572000000000000000000000000000000000000000000000060648201526084015b60405180910390fd5b604051339082156108fc029083906000818181858888f1935050505015801561040b573d6000803e3d6000fd5b505050565b6001600160a01b03811660009081526003602090815260409182902080548351818402810184019094528084526060939283018282801561047a57602002820191906000526020600020905b81546001600160a01b0316815260019091019060200180831161045c575b50505050509050919050565b336000908152602081815260408083206001600160a01b038516845290915290205460ff166104f75760405162461bcd60e51b815260206004820152601460248201527f41646d696e206e6f7420617574686f72697a656400000000000000000000000060448201526064016103d5565b336000818152602081815260408083206001600160a01b038616808552908352818420805460ff1916905584845260048352818420908452825280832054938352600290915281205461054c90600190610cae565b90508082146105f65733600090815260026020526040812080548390811061057657610576610ccf565b60009182526020808320909101543383526002909152604090912080546001600160a01b0390921692508291859081106105b2576105b2610ccf565b600091825260208083209190910180546001600160a01b0319166001600160a01b039485161790553382526004815260408083209490931682529290925290208290555b33600090815260026020526040902080548061061457610614610ce5565b60008281526020808220830160001990810180546001600160a01b0319169055909201909255338083526004825260408084206001600160a01b038816808652908452818520859055600584528185209285529183528084205491845260039092529082205490919061068990600190610cae565b9050808214610742576001600160a01b03851660009081526003602052604081208054839081106106bc576106bc610ccf565b60009182526020808320909101546001600160a01b038981168452600390925260409092208054919092169250829190859081106106fc576106fc610ccf565b600091825260208083209190910180546001600160a01b0319166001600160a01b0394851617905588831682526005815260408083209490931682529290925290208290555b6001600160a01b038516600090815260036020526040902080548061076957610769610ce5565b60008281526020808220830160001990810180546001600160a01b03191690559092019092556001600160a01b0387168083526005825260408084203380865293528084208490555190927f7c0c3c84c67c85fcac635147348bfe374c24a1a93d0366d1cfe9d8853cbf89d591a35050505050565b6001600160a01b03811660009081526001602052604090205460ff1661086c5760405162461bcd60e51b815260206004820152602260248201527f41646472657373206973206e6f7420726567697374657265642061732061646d60448201527f696e00000000000000000000000000000000000000000000000000000000000060648201526084016103d5565b336000908152602081815260408083206001600160a01b038516845290915290205460ff16156108de5760405162461bcd60e51b815260206004820152601860248201527f41646d696e20616c726561647920617574686f72697a6564000000000000000060448201526064016103d5565b336000818152602081815260408083206001600160a01b038616808552908352818420805460ff19166001908117909155858552600284529184208054808401825581865293852090930180546001600160a01b031916909117905592909152546109499190610cae565b3360008181526004602090815260408083206001600160a01b038716808552908352818420959095556003825282208054600181810183558285529284200180546001600160a01b031916909417909355929052546109a89190610cae565b6001600160a01b03821660008181526005602090815260408083203380855292528083209490945592519192917f7fa35aa5d90e50d57991303296b8e26ee9ae857f68349adb234a8b969c4507059190a350565b6001600160a01b038083166000908152602081815260408083209385168352929052205460ff165b92915050565b60026020528160005260406000208181548110610a4657600080fd5b6000918252602090912001546001600160a01b03169150829050565b6001600160a01b03811660009081526002602090815260409182902080548351818402810184019094528084526060939283018282801561047a576020028201919060005260206000209081546001600160a01b0316815260019091019060200180831161045c5750505050509050919050565b60036020528160005260406000208181548110610a4657600080fd5b3360009081526001602052604090205460ff16610b775760405162461bcd60e51b815260206004820152602360248201527f4f6e6c792061646d696e732063616e207265676973746572206e65772061646d60448201527f696e73000000000000000000000000000000000000000000000000000000000060648201526084016103d5565b6001600160a01b0381166000818152600160208190526040808320805460ff1916909217909155517fac0f15283d37631c15b481bc07dc402bcfc030956bcd94b5585f71d92e84c3da9190a250565b80356001600160a01b0381168114610bdd57600080fd5b919050565b60008060408385031215610bf557600080fd5b610bfe83610bc6565b9150610c0c60208401610bc6565b90509250929050565b60008060408385031215610c2857600080fd5b610c3183610bc6565b946020939093013593505050565b600060208284031215610c5157600080fd5b610c5a82610bc6565b9392505050565b6020808252825182820181905260009190848201906040850190845b81811015610ca25783516001600160a01b031683529284019291840191600101610c7d565b50909695505050505050565b81810381811115610a2457634e487b7160e01b600052601160045260246000fd5b634e487b7160e01b600052603260045260246000fd5b634e487b7160e01b600052603160045260246000fdfea2646970667358221220078e0ee7df253c3c4c7e555de7879cf98630abebb19c9623d849fd050a04738f64736f6c63430008140033",
  "linkReferences": {},
  "deployedLinkReferences": {}
}